{
  "abi": [
    {
      "inputs": [],
      "stateMutability": "nonpayable",
      "type": "constructor"
    },
    {
      "anonymous": false,
      "inputs": [
        {
          "indexed": true,
          "internalType": "address",
          "name": "owner",
          "type": "address"
        },
        {
          "indexed": true,
          "internalType": "address",
          "name": "spender",
          "type": "address"
        },
        {
          "indexed": true,
          "internalType": "uint256",
          "name": "id",
          "type": "uint256"
        }
      ],
      "name": "Approval",
      "type": "event"
    },
    {
      "anonymous": false,
      "inputs": [
        {
          "indexed": true,
          "internalType": "address",
          "name": "owner",
          "type": "address"
        },
        {
          "indexed": true,
          "internalType": "address",
          "name": "operator",
          "type": "address"
        },
        {
          "indexed": false,
          "internalType": "bool",
          "name": "approved",
          "type": "bool"
        }
      ],
      "name": "ApprovalForAll",
      "type": "event"
    },
    {
      "anonymous": false,
      "inputs": [
        {
          "indexed": true,
          "internalType": "address",
          "name": "from",
          "type": "address"
        },
        {
          "indexed": true,
          "internalType": "address",
          "name": "to",
          "type": "address"
        },
        {
          "indexed": true,
          "internalType": "uint256",
          "name": "id",
          "type": "uint256"
        }
      ],
      "name": "Transfer",
      "type": "event"
    },
    {
      "inputs": [
        {
          "internalType": "address",
          "name": "spender",
          "type": "address"
        },
        {
          "internalType": "uint256",
          "name": "id",
          "type": "uint256"
        }
      ],
      "name": "approve",
      "outputs": [],
      "stateMutability": "nonpayable",
      "type": "function"
    },
    {
      "inputs": [
        {
          "internalType": "address",
          "name": "owner",
          "type": "address"
        }
      ],
      "name": "balanceOf",
      "outputs": [
        {
          "internalType": "uint256",
          "name": "",
          "type": "uint256"
        }
      ],
      "stateMutability": "view",
      "type": "function"
    },
    {
      "inputs": [],
      "name": "currentTokenId",
      "outputs": [
        {
          "internalType": "uint256",
          "name": "",
          "type": "uint256"
        }
      ],
      "stateMutability": "view",
      "type": "function"
    },
    {
      "inputs": [
        {
          "internalType": "uint256",
          "name": "",
          "type": "uint256"
        }
      ],
      "name": "getApproved",
      "outputs": [
        {
          "internalType": "address",
          "name": "",
          "type": "address"
        }
      ],
      "stateMutability": "view",
      "type": "function"
    },
    {
      "inputs": [
        {
          "internalType": "address",
          "name": "",
          "type": "address"
        },
        {
          "internalType": "address",
          "name": "",
          "type": "address"
        }
      ],
      "name": "isApprovedForAll",
      "outputs": [
        {
          "internalType": "bool",
          "name": "",
          "type": "bool"
        }
      ],
      "stateMutability": "view",
      "type": "function"
    },
    {
      "inputs": [
        {
          "internalType": "address",
          "name": "r",
          "type": "address"
        },
        {
          "internalType": "uint256",
          "name": "mintAmount",
          "type": "uint256"
        }
      ],
      "name": "mint",
      "outputs": [],
      "stateMutability": "nonpayable",
      "type": "function"
    },
    {
      "inputs": [],
      "name": "name",
      "outputs": [
        {
          "internalType": "string",
          "name": "",
          "type": "string"
        }
      ],
      "stateMutability": "view",
      "type": "function"
    },
    {
      "inputs": [
        {
          "internalType": "uint256",
          "name": "id",
          "type": "uint256"
        }
      ],
      "name": "ownerOf",
      "outputs": [
        {
          "internalType": "address",
          "name": "owner",
          "type": "address"
        }
      ],
      "stateMutability": "view",
      "type": "function"
    },
    {
      "inputs": [
        {
          "internalType": "address",
          "name": "from",
          "type": "address"
        },
        {
          "internalType": "address",
          "name": "to",
          "type": "address"
        },
        {
          "internalType": "uint256",
          "name": "id",
          "type": "uint256"
        }
      ],
      "name": "safeTransferFrom",
      "outputs": [],
      "stateMutability": "nonpayable",
      "type": "function"
    },
    {
      "inputs": [
        {
          "internalType": "address",
          "name": "from",
          "type": "address"
        },
        {
          "internalType": "address",
          "name": "to",
          "type": "address"
        },
        {
          "internalType": "uint256",
          "name": "id",
          "type": "uint256"
        },
        {
          "internalType": "bytes",
          "name": "data",
          "type": "bytes"
        }
      ],
      "name": "safeTransferFrom",
      "outputs": [],
      "stateMutability": "nonpayable",
      "type": "function"
    },
    {
      "inputs": [
        {
          "internalType": "address",
          "name": "operator",
          "type": "address"
        },
        {
          "internalType": "bool",
          "name": "approved",
          "type": "bool"
        }
      ],
      "name": "setApprovalForAll",
      "outputs": [],
      "stateMutability": "nonpayable",
      "type": "function"
    },
    {
      "inputs": [
        {
          "internalType": "bytes4",
          "name": "interfaceId",
          "type": "bytes4"
        }
      ],
      "name": "supportsInterface",
      "outputs": [
        {
          "internalType": "bool",
          "name": "",
          "type": "bool"
        }
      ],
      "stateMutability": "view",
      "type": "function"
    },
    {
      "inputs": [],
      "name": "symbol",
      "outputs": [
        {
          "internalType": "string",
          "name": "",
          "type": "string"
        }
      ],
      "stateMutability": "view",
      "type": "function"
    },
    {
      "inputs": [
        {
          "internalType": "uint256",
          "name": "id",
          "type": "uint256"
        }
      ],
      "name": "tokenURI",
      "outputs": [
        {
          "internalType": "string",
          "name": "",
          "type": "string"
        }
      ],
      "stateMutability": "view",
      "type": "function"
    },
    {
      "inputs": [
        {
          "internalType": "address",
          "name": "from",
          "type": "address"
        },
        {
          "internalType": "address",
          "name": "to",
          "type": "address"
        },
        {
          "internalType": "uint256",
          "name": "id",
          "type": "uint256"
        }
      ],
      "name": "transferFrom",
      "outputs": [],
      "stateMutability": "nonpayable",
      "type": "function"
    }
  ],
  "bytecode": {
    "object": "0x60806040523480156200001157600080fd5b5060408051808201825260038082526213919560ea1b60208084018290528451808601909552918452908301529060006200004d83826200010a565b5060016200005c82826200010a565b505050620001d6565b634e487b7160e01b600052604160045260246000fd5b600181811c908216806200009057607f821691505b602082108103620000b157634e487b7160e01b600052602260045260246000fd5b50919050565b601f8211156200010557600081815260208120601f850160051c81016020861015620000e05750805b601f850160051c820191505b818110156200010157828155600101620000ec565b5050505b505050565b81516001600160401b0381111562000126576200012662000065565b6200013e816200013784546200007b565b84620000b7565b602080601f8311600181146200017657600084156200015d5750858301515b600019600386901b1c1916600185901b17855562000101565b600085815260208120601f198616915b82811015620001a75788860151825594840194600190910190840162000186565b5085821015620001c65787850151600019600388901b60f8161c191681555b5050505050600190811b01905550565b61100980620001e66000396000f3fe608060405234801561001057600080fd5b50600436106100f45760003560e01c806342842e0e11610097578063a22cb46511610066578063a22cb4651461020a578063b88d4fde1461021d578063c87b56dd14610230578063e985e9c51461024357600080fd5b806342842e0e146101c95780636352211e146101dc57806370a08231146101ef57806395d89b411461020257600080fd5b8063081812fc116100d3578063081812fc1461014d578063095ea7b31461018e57806323b872dd146101a357806340c10f19146101b657600080fd5b80629a9b7b146100f957806301ffc9a71461011557806306fdde0314610138575b600080fd5b61010260065481565b6040519081526020015b60405180910390f35b610128610123366004610c79565b610271565b604051901515815260200161010c565b6101406102c3565b60405161010c9190610c9d565b61017661015b366004610ceb565b6004602052600090815260409020546001600160a01b031681565b6040516001600160a01b03909116815260200161010c565b6101a161019c366004610d1b565b610351565b005b6101a16101b1366004610d45565b610438565b6101a16101c4366004610d1b565b6105ff565b6101a16101d7366004610d45565b610647565b6101766101ea366004610ceb565b610717565b6101026101fd366004610d81565b61076e565b6101406107d1565b6101a1610218366004610d9c565b6107de565b6101a161022b366004610dd8565b61084a565b61014061023e366004610ceb565b61090f565b610128610251366004610e73565b600560209081526000928352604080842090915290825290205460ff1681565b60006301ffc9a760e01b6001600160e01b0319831614806102a257506380ac58cd60e01b6001600160e01b03198316145b806102bd5750635b5e139f60e01b6001600160e01b03198316145b92915050565b600080546102d090610ea6565b80601f01602080910402602001604051908101604052809291908181526020018280546102fc90610ea6565b80156103495780601f1061031e57610100808354040283529160200191610349565b820191906000526020600020905b81548152906001019060200180831161032c57829003601f168201915b505050505081565b6000818152600260205260409020546001600160a01b03163381148061039a57506001600160a01b038116600090815260056020908152604080832033845290915290205460ff165b6103dc5760405162461bcd60e51b815260206004820152600e60248201526d1393d517d055551213d49256915160921b60448201526064015b60405180910390fd5b60008281526004602052604080822080546001600160a01b0319166001600160a01b0387811691821790925591518593918516917f8c5be1e5ebec7d5bd14f71427d1e84f3dd0314c0f7b2291e5b200ac8c7c3b92591a4505050565b6000818152600260205260409020546001600160a01b0384811691161461048e5760405162461bcd60e51b815260206004820152600a60248201526957524f4e475f46524f4d60b01b60448201526064016103d3565b6001600160a01b0382166104d85760405162461bcd60e51b81526020600482015260116024820152701253959053125117d49150d25412515395607a1b60448201526064016103d3565b336001600160a01b038416148061051257506001600160a01b038316600090815260056020908152604080832033845290915290205460ff165b8061053357506000818152600460205260409020546001600160a01b031633145b6105705760405162461bcd60e51b815260206004820152600e60248201526d1393d517d055551213d49256915160921b60448201526064016103d3565b6001600160a01b0380841660008181526003602090815260408083208054600019019055938616808352848320805460010190558583526002825284832080546001600160a01b03199081168317909155600490925284832080549092169091559251849392917fddf252ad1be2c89b69c2b068fc378daa952ba7f163c4a11628f55a4df523b3ef91a4505050565b60005b818110156106425760016006600082825461061d9190610ef6565b925050819055506106308360065461091a565b8061063a81610f09565b915050610602565b505050565b610652838383610438565b6001600160a01b0382163b15806106fb5750604051630a85bd0160e11b8082523360048301526001600160a01b03858116602484015260448301849052608060648401526000608484015290919084169063150b7a029060a4016020604051808303816000875af11580156106cb573d6000803e3d6000fd5b505050506040513d601f19601f820116820180604052508101906106ef9190610f22565b6001600160e01b031916145b6106425760405162461bcd60e51b81526004016103d390610f3f565b6000818152600260205260409020546001600160a01b0316806107695760405162461bcd60e51b815260206004820152600a6024820152691393d517d3525395115160b21b60448201526064016103d3565b919050565b60006001600160a01b0382166107b55760405162461bcd60e51b815260206004820152600c60248201526b5a45524f5f4144445245535360a01b60448201526064016103d3565b506001600160a01b031660009081526003602052604090205490565b600180546102d090610ea6565b3360008181526005602090815260408083206001600160a01b03871680855290835292819020805460ff191686151590811790915590519081529192917f17307eab39ab6107e8899845ad3d59bd9653f200f220920489ca2b5937696c31910160405180910390a35050565b610855858585610438565b6001600160a01b0384163b15806108ec5750604051630a85bd0160e11b808252906001600160a01b0386169063150b7a029061089d9033908a90899089908990600401610f69565b6020604051808303816000875af11580156108bc573d6000803e3d6000fd5b505050506040513d601f19601f820116820180604052508101906108e09190610f22565b6001600160e01b031916145b6109085760405162461bcd60e51b81526004016103d390610f3f565b5050505050565b60606102bd826109ea565b6109248282610a7d565b6001600160a01b0382163b15806109ca5750604051630a85bd0160e11b80825233600483015260006024830181905260448301849052608060648401526084830152906001600160a01b0384169063150b7a029060a4016020604051808303816000875af115801561099a573d6000803e3d6000fd5b505050506040513d601f19601f820116820180604052508101906109be9190610f22565b6001600160e01b031916145b6109e65760405162461bcd60e51b81526004016103d390610f3f565b5050565b606060006109f783610b88565b600101905060008167ffffffffffffffff811115610a1757610a17610fbd565b6040519080825280601f01601f191660200182016040528015610a41576020820181803683370190505b5090508181016020015b600019016f181899199a1a9b1b9c1cb0b131b232b360811b600a86061a8153600a8504945084610a4b57509392505050565b6001600160a01b038216610ac75760405162461bcd60e51b81526020600482015260116024820152701253959053125117d49150d25412515395607a1b60448201526064016103d3565b6000818152600260205260409020546001600160a01b031615610b1d5760405162461bcd60e51b815260206004820152600e60248201526d1053149150511657d3525395115160921b60448201526064016103d3565b6001600160a01b038216600081815260036020908152604080832080546001019055848352600290915280822080546001600160a01b0319168417905551839291907fddf252ad1be2c89b69c2b068fc378daa952ba7f163c4a11628f55a4df523b3ef908290a45050565b60008072184f03e93ff9f4daa797ed6e38ed64bf6a1f0160401b8310610bc75772184f03e93ff9f4daa797ed6e38ed64bf6a1f0160401b830492506040015b6d04ee2d6d415b85acef81000000008310610bf3576d04ee2d6d415b85acef8100000000830492506020015b662386f26fc100008310610c1157662386f26fc10000830492506010015b6305f5e1008310610c29576305f5e100830492506008015b6127108310610c3d57612710830492506004015b60648310610c4f576064830492506002015b600a83106102bd5760010192915050565b6001600160e01b031981168114610c7657600080fd5b50565b600060208284031215610c8b57600080fd5b8135610c9681610c60565b9392505050565b600060208083528351808285015260005b81811015610cca57858101830151858201604001528201610cae565b506000604082860101526040601f19601f8301168501019250505092915050565b600060208284031215610cfd57600080fd5b5035919050565b80356001600160a01b038116811461076957600080fd5b60008060408385031215610d2e57600080fd5b610d3783610d04565b946020939093013593505050565b600080600060608486031215610d5a57600080fd5b610d6384610d04565b9250610d7160208501610d04565b9150604084013590509250925092565b600060208284031215610d9357600080fd5b610c9682610d04565b60008060408385031215610daf57600080fd5b610db883610d04565b915060208301358015158114610dcd57600080fd5b809150509250929050565b600080600080600060808688031215610df057600080fd5b610df986610d04565b9450610e0760208701610d04565b935060408601359250606086013567ffffffffffffffff80821115610e2b57600080fd5b818801915088601f830112610e3f57600080fd5b813581811115610e4e57600080fd5b896020828501011115610e6057600080fd5b9699959850939650602001949392505050565b60008060408385031215610e8657600080fd5b610e8f83610d04565b9150610e9d60208401610d04565b90509250929050565b600181811c90821680610eba57607f821691505b602082108103610eda57634e487b7160e01b600052602260045260246000fd5b50919050565b634e487b7160e01b600052601160045260246000fd5b808201808211156102bd576102bd610ee0565b600060018201610f1b57610f1b610ee0565b5060010190565b600060208284031215610f3457600080fd5b8151610c9681610c60565b60208082526010908201526f155394d0519157d49150d2541251539560821b604082015260600190565b6001600160a01b038681168252851660208201526040810184905260806060820181905281018290526000828460a0840137600060a0848401015260a0601f19601f85011683010190509695505050505050565b634e487b7160e01b600052604160045260246000fdfea2646970667358221220ff39abf54fcc412369a9e53052e2464995ba60c5d9d532ee8292eaa9c2923b1364736f6c63430008110033",
    "linkReferences": {}
  },
  "methodIdentifiers": {
    "approve(address,uint256)": "095ea7b3",
    "balanceOf(address)": "70a08231",
    "currentTokenId()": "009a9b7b",
    "getApproved(uint256)": "081812fc",
    "isApprovedForAll(address,address)": "e985e9c5",
    "mint(address,uint256)": "40c10f19",
    "name()": "06fdde03",
    "ownerOf(uint256)": "6352211e",
    "safeTransferFrom(address,address,uint256)": "42842e0e",
    "safeTransferFrom(address,address,uint256,bytes)": "b88d4fde",
    "setApprovalForAll(address,bool)": "a22cb465",
    "supportsInterface(bytes4)": "01ffc9a7",
    "symbol()": "95d89b41",
    "tokenURI(uint256)": "c87b56dd",
    "transferFrom(address,address,uint256)": "23b872dd"
  },
  "id": 20
}