{
  "abi": [
    {
      "anonymous": false,
      "inputs": [
        {
          "indexed": true,
          "internalType": "address",
          "name": "previousOwner",
          "type": "address"
        },
        {
          "indexed": true,
          "internalType": "address",
          "name": "newOwner",
          "type": "address"
        }
      ],
      "name": "OwnershipTransferred",
      "type": "event"
    },
    {
      "anonymous": false,
      "inputs": [
        {
          "indexed": true,
          "internalType": "address",
          "name": "contractAddress",
          "type": "address"
        },
        {
          "indexed": false,
          "internalType": "uint256",
          "name": "tokenIndex",
          "type": "uint256"
        },
        {
          "indexed": true,
          "internalType": "address",
          "name": "from",
          "type": "address"
        },
        {
          "indexed": true,
          "internalType": "address",
          "name": "to",
          "type": "address"
        }
      ],
      "name": "TokenTransfer",
      "type": "event"
    },
    {
      "inputs": [
        {
          "internalType": "address",
          "name": "",
          "type": "address"
        }
      ],
      "name": "addressVault",
      "outputs": [
        {
          "internalType": "address",
          "name": "",
          "type": "address"
        }
      ],
      "stateMutability": "view",
      "type": "function"
    },
    {
      "inputs": [
        {
          "internalType": "address",
          "name": "contractAddress",
          "type": "address"
        },
        {
          "internalType": "uint256[]",
          "name": "tokenIndexes",
          "type": "uint256[]"
        },
        {
          "internalType": "address[]",
          "name": "recipients",
          "type": "address[]"
        },
        {
          "internalType": "bool",
          "name": "isERC1155",
          "type": "bool"
        }
      ],
      "name": "contractBulkTransfer",
      "outputs": [],
      "stateMutability": "payable",
      "type": "function"
    },
    {
      "inputs": [],
      "name": "owner",
      "outputs": [
        {
          "internalType": "address",
          "name": "",
          "type": "address"
        }
      ],
      "stateMutability": "view",
      "type": "function"
    },
    {
      "inputs": [],
      "name": "renounceOwnership",
      "outputs": [],
      "stateMutability": "nonpayable",
      "type": "function"
    },
    {
      "inputs": [
        {
          "internalType": "address",
          "name": "newOwner",
          "type": "address"
        }
      ],
      "name": "transferOwnership",
      "outputs": [],
      "stateMutability": "nonpayable",
      "type": "function"
    },
    {
      "inputs": [
        {
          "internalType": "uint256",
          "name": "amount",
          "type": "uint256"
        }
      ],
      "name": "updateFee",
      "outputs": [],
      "stateMutability": "nonpayable",
      "type": "function"
    },
    {
      "inputs": [
        {
          "internalType": "address",
          "name": "vaultAddress",
          "type": "address"
        }
      ],
      "name": "updateVault",
      "outputs": [],
      "stateMutability": "nonpayable",
      "type": "function"
    },
    {
      "inputs": [],
      "name": "usageFee",
      "outputs": [
        {
          "internalType": "uint256",
          "name": "",
          "type": "uint256"
        }
      ],
      "stateMutability": "view",
      "type": "function"
    },
    {
      "inputs": [],
      "name": "withdraw",
      "outputs": [],
      "stateMutability": "nonpayable",
      "type": "function"
    }
  ],
  "bytecode": {
    "object": "0x6080604052655af3107a400060025534801561001a57600080fd5b5061002433610029565b610079565b600080546001600160a01b038381166001600160a01b0319831681178455604051919092169283917f8be0079c531659141344cd1fd0a4f28419497f9722a3daafe3b4186f6b6457e09190a35050565b610b5d806100886000396000f3fe6080604052600436106100865760003560e01c80638da5cb5b116100595780638da5cb5b1461012e5780639012c4a81461014c578063c3c77c631461016c578063e7563f3f1461017f578063f2fde38b146101c957600080fd5b80632ab8c1f41461008b57806334aef4c8146100de5780633ccfd60b14610102578063715018a614610119575b600080fd5b34801561009757600080fd5b506100c16100a636600461081b565b6001602052600090815260409020546001600160a01b031681565b6040516001600160a01b0390911681526020015b60405180910390f35b3480156100ea57600080fd5b506100f460025481565b6040519081526020016100d5565b34801561010e57600080fd5b506101176101e9565b005b34801561012557600080fd5b50610117610224565b34801561013a57600080fd5b506000546001600160a01b03166100c1565b34801561015857600080fd5b5061011761016736600461083f565b610238565b61011761017a3660046108b2565b610245565b34801561018b57600080fd5b5061011761019a36600461081b565b33600090815260016020526040902080546001600160a01b0319166001600160a01b0392909216919091179055565b3480156101d557600080fd5b506101176101e436600461081b565b610365565b6101f16103de565b6040514790339082156108fc029083906000818181858888f19350505050158015610220573d6000803e3d6000fd5b5050565b61022c6103de565b6102366000610438565b565b6102406103de565b600255565b8382146102995760405162461bcd60e51b815260206004820152601960248201527f4172726179206c656e67746873206d757374206d617463682e0000000000000060448201526064015b60405180910390fd5b6002546102a6908561095d565b3410156102f55760405162461bcd60e51b815260206004820152601760248201527f496e76616c6964207573616765206665652073656e742e0000000000000000006044820152606401610290565b60005b8481101561035c5761034a878787848181106103165761031661097a565b9050602002013586868581811061032f5761032f61097a565b9050602002016020810190610344919061081b565b85610488565b8061035481610990565b9150506102f8565b50505050505050565b61036d6103de565b6001600160a01b0381166103d25760405162461bcd60e51b815260206004820152602660248201527f4f776e61626c653a206e6577206f776e657220697320746865207a65726f206160448201526564647265737360d01b6064820152608401610290565b6103db81610438565b50565b6000546001600160a01b031633146102365760405162461bcd60e51b815260206004820181905260248201527f4f776e61626c653a2063616c6c6572206973206e6f7420746865206f776e65726044820152606401610290565b600080546001600160a01b038381166001600160a01b0319831681178455604051919092169283917f8be0079c531659141344cd1fd0a4f28419497f9722a3daafe3b4186f6b6457e09190a35050565b801561061d57604051627eeac760e11b8152336004820152602481018490526000906001600160a01b0386169062fdd58e90604401602060405180830381865afa1580156104da573d6000803e3d6000fd5b505050506040513d601f19601f820116820180604052508101906104fe91906109a9565b1161051b5760405162461bcd60e51b8152600401610290906109c2565b60405163e985e9c560e01b81523360048201523060248201526001600160a01b0385169063e985e9c590604401602060405180830381865afa158015610565573d6000803e3d6000fd5b505050506040513d601f19601f820116820180604052508101906105899190610a1f565b6105a55760405162461bcd60e51b815260040161029090610a3c565b60408051602081018252600081529051637921219560e11b81526001600160a01b0386169163f242432a916105e69133918791899160019190600401610a92565b600060405180830381600087803b15801561060057600080fd5b505af1158015610614573d6000803e3d6000fd5b505050506107a9565b6040516331a9108f60e11b8152600481018490526001600160a01b03851690636352211e90602401602060405180830381865afa158015610662573d6000803e3d6000fd5b505050506040513d601f19601f820116820180604052508101906106869190610b0a565b6001600160a01b0316336001600160a01b0316146106b65760405162461bcd60e51b8152600401610290906109c2565b60405163e985e9c560e01b81523360048201523060248201526001600160a01b0385169063e985e9c590604401602060405180830381865afa158015610700573d6000803e3d6000fd5b505050506040513d601f19601f820116820180604052508101906107249190610a1f565b6107405760405162461bcd60e51b815260040161029090610a3c565b604051632142170760e11b81523360048201526001600160a01b038381166024830152604482018590528516906342842e0e90606401600060405180830381600087803b15801561079057600080fd5b505af11580156107a4573d6000803e3d6000fd5b505050505b816001600160a01b0316336001600160a01b0316856001600160a01b03167fa8b0736f82b72321cb76a3db6dfd7187786bb37ac0964124f784ec881c56ab75866040516107f891815260200190565b60405180910390a450505050565b6001600160a01b03811681146103db57600080fd5b60006020828403121561082d57600080fd5b813561083881610806565b9392505050565b60006020828403121561085157600080fd5b5035919050565b60008083601f84011261086a57600080fd5b50813567ffffffffffffffff81111561088257600080fd5b6020830191508360208260051b850101111561089d57600080fd5b9250929050565b80151581146103db57600080fd5b600080600080600080608087890312156108cb57600080fd5b86356108d681610806565b9550602087013567ffffffffffffffff808211156108f357600080fd5b6108ff8a838b01610858565b9097509550604089013591508082111561091857600080fd5b5061092589828a01610858565b9094509250506060870135610939816108a4565b809150509295509295509295565b634e487b7160e01b600052601160045260246000fd5b808202811582820484141761097457610974610947565b92915050565b634e487b7160e01b600052603260045260246000fd5b6000600182016109a2576109a2610947565b5060010190565b6000602082840312156109bb57600080fd5b5051919050565b6020808252603c908201527f53656e646572206973206e6f742074686520746f6b656e206f776e65722c206360408201527f616e6e6f742070726f636565642077697468207472616e736665722e00000000606082015260800190565b600060208284031215610a3157600080fd5b8151610838816108a4565b60208082526036908201527f436f6e7472616374206e6f7420617070726f76656420746f2073656e6420746f60408201527535b2b7399037b71029b2b73232b9103132b430b6331760511b606082015260800190565b600060018060a01b03808816835260208188168185015286604085015285606085015260a06080850152845191508160a085015260005b82811015610ae55785810182015185820160c001528101610ac9565b5050600060c0828501015260c0601f19601f8301168401019150509695505050505050565b600060208284031215610b1c57600080fd5b81516108388161080656fea264697066735822122031683dc6e4f8202cc7e0c85f9457090f1e1227f9b8f42325b5dc2c9f5c9b178764736f6c63430008110033",
    "linkReferences": {}
  },
  "methodIdentifiers": {
    "addressVault(address)": "2ab8c1f4",
    "contractBulkTransfer(address,uint256[],address[],bool)": "c3c77c63",
    "owner()": "8da5cb5b",
    "renounceOwnership()": "715018a6",
    "transferOwnership(address)": "f2fde38b",
    "updateFee(uint256)": "9012c4a8",
    "updateVault(address)": "e7563f3f",
    "usageFee()": "34aef4c8",
    "withdraw()": "3ccfd60b"
  },
  "id": 30
}