{
  "abi": [
    {
      "anonymous": false,
      "inputs": [
        {
          "indexed": true,
          "internalType": "address",
          "name": "contractAddress",
          "type": "address"
        },
        {
          "indexed": false,
          "internalType": "uint256",
          "name": "tokenIndex",
          "type": "uint256"
        },
        {
          "indexed": true,
          "internalType": "address",
          "name": "from",
          "type": "address"
        },
        {
          "indexed": true,
          "internalType": "address",
          "name": "to",
          "type": "address"
        }
      ],
      "name": "TokenTransfer",
      "type": "event"
    },
    {
      "inputs": [
        {
          "internalType": "address",
          "name": "",
          "type": "address"
        }
      ],
      "name": "addressVault",
      "outputs": [
        {
          "internalType": "address",
          "name": "",
          "type": "address"
        }
      ],
      "stateMutability": "view",
      "type": "function"
    },
    {
      "inputs": [
        {
          "internalType": "address",
          "name": "contractAddress",
          "type": "address"
        },
        {
          "internalType": "uint256[]",
          "name": "tokenIndexes",
          "type": "uint256[]"
        },
        {
          "internalType": "address[]",
          "name": "recipients",
          "type": "address[]"
        },
        {
          "internalType": "bool",
          "name": "isERC1155",
          "type": "bool"
        }
      ],
      "name": "contractBulkTransfer",
      "outputs": [],
      "stateMutability": "nonpayable",
      "type": "function"
    },
    {
      "inputs": [
        {
          "internalType": "address",
          "name": "contractAddress",
          "type": "address"
        },
        {
          "internalType": "uint256",
          "name": "tokenIndex",
          "type": "uint256"
        },
        {
          "internalType": "address",
          "name": "recipient",
          "type": "address"
        },
        {
          "internalType": "bool",
          "name": "isERC1155",
          "type": "bool"
        }
      ],
      "name": "contractTransfer",
      "outputs": [],
      "stateMutability": "nonpayable",
      "type": "function"
    },
    {
      "inputs": [
        {
          "internalType": "address",
          "name": "vaultAddress",
          "type": "address"
        }
      ],
      "name": "updateVault",
      "outputs": [],
      "stateMutability": "nonpayable",
      "type": "function"
    }
  ],
  "bytecode": {
    "object": "0x608060405234801561001057600080fd5b506108b0806100206000396000f3fe608060405234801561001057600080fd5b506004361061004c5760003560e01c80632ab8c1f414610051578063785da64414610096578063c3c77c63146100ab578063e7563f3f146100be575b600080fd5b61007a61005f366004610559565b6000602081905290815260409020546001600160a01b031681565b6040516001600160a01b03909116815260200160405180910390f35b6100a96100a436600461058b565b6100fb565b005b6100a96100b936600461062a565b610482565b6100a96100cc366004610559565b33600090815260208190526040902080546001600160a01b0319166001600160a01b0392909216919091179055565b801561029957604051627eeac760e11b8152336004820152602481018490526000906001600160a01b0386169062fdd58e90604401602060405180830381865afa15801561014d573d6000803e3d6000fd5b505050506040513d601f19601f8201168201806040525081019061017191906106bf565b116101975760405162461bcd60e51b815260040161018e906106d8565b60405180910390fd5b60405163e985e9c560e01b81523360048201523060248201526001600160a01b0385169063e985e9c590604401602060405180830381865afa1580156101e1573d6000803e3d6000fd5b505050506040513d601f19601f820116820180604052508101906102059190610735565b6102215760405162461bcd60e51b815260040161018e90610752565b60408051602081018252600081529051637921219560e11b81526001600160a01b0386169163f242432a9161026291339187918991600191906004016107a8565b600060405180830381600087803b15801561027c57600080fd5b505af1158015610290573d6000803e3d6000fd5b50505050610425565b6040516331a9108f60e11b8152600481018490526001600160a01b03851690636352211e90602401602060405180830381865afa1580156102de573d6000803e3d6000fd5b505050506040513d601f19601f820116820180604052508101906103029190610820565b6001600160a01b0316336001600160a01b0316146103325760405162461bcd60e51b815260040161018e906106d8565b60405163e985e9c560e01b81523360048201523060248201526001600160a01b0385169063e985e9c590604401602060405180830381865afa15801561037c573d6000803e3d6000fd5b505050506040513d601f19601f820116820180604052508101906103a09190610735565b6103bc5760405162461bcd60e51b815260040161018e90610752565b604051632142170760e11b81523360048201526001600160a01b038381166024830152604482018590528516906342842e0e90606401600060405180830381600087803b15801561040c57600080fd5b505af1158015610420573d6000803e3d6000fd5b505050505b816001600160a01b0316336001600160a01b0316856001600160a01b03167fa8b0736f82b72321cb76a3db6dfd7187786bb37ac0964124f784ec881c56ab758660405161047491815260200190565b60405180910390a450505050565b8382146104d15760405162461bcd60e51b815260206004820152601960248201527f4172726179206c656e67746873206d757374206d617463682e00000000000000604482015260640161018e565b60005b8481101561053857610526878787848181106104f2576104f261083d565b9050602002013586868581811061050b5761050b61083d565b90506020020160208101906105209190610559565b856100fb565b8061053081610853565b9150506104d4565b50505050505050565b6001600160a01b038116811461055657600080fd5b50565b60006020828403121561056b57600080fd5b813561057681610541565b9392505050565b801515811461055657600080fd5b600080600080608085870312156105a157600080fd5b84356105ac81610541565b93506020850135925060408501356105c381610541565b915060608501356105d38161057d565b939692955090935050565b60008083601f8401126105f057600080fd5b50813567ffffffffffffffff81111561060857600080fd5b6020830191508360208260051b850101111561062357600080fd5b9250929050565b6000806000806000806080878903121561064357600080fd5b863561064e81610541565b9550602087013567ffffffffffffffff8082111561066b57600080fd5b6106778a838b016105de565b9097509550604089013591508082111561069057600080fd5b5061069d89828a016105de565b90945092505060608701356106b18161057d565b809150509295509295509295565b6000602082840312156106d157600080fd5b5051919050565b6020808252603c908201527f53656e646572206973206e6f742074686520746f6b656e206f776e65722c206360408201527f616e6e6f742070726f636565642077697468207472616e736665722e00000000606082015260800190565b60006020828403121561074757600080fd5b81516105768161057d565b60208082526036908201527f436f6e7472616374206e6f7420617070726f76656420746f2073656e6420746f60408201527535b2b7399037b71029b2b73232b9103132b430b6331760511b606082015260800190565b600060018060a01b03808816835260208188168185015286604085015285606085015260a06080850152845191508160a085015260005b828110156107fb5785810182015185820160c0015281016107df565b5050600060c0828501015260c0601f19601f8301168401019150509695505050505050565b60006020828403121561083257600080fd5b815161057681610541565b634e487b7160e01b600052603260045260246000fd5b60006001820161087357634e487b7160e01b600052601160045260246000fd5b506001019056fea264697066735822122093c2c95343af195c80725dd00c625744da7664bea0a92e5ce264de98394570e064736f6c63430008110033",
    "linkReferences": {}
  },
  "methodIdentifiers": {
    "addressVault(address)": "2ab8c1f4",
    "contractBulkTransfer(address,uint256[],address[],bool)": "c3c77c63",
    "contractTransfer(address,uint256,address,bool)": "785da644",
    "updateVault(address)": "e7563f3f"
  },
  "id": 19
}