{
  "abi": [
    {
      "anonymous": false,
      "inputs": [
        {
          "indexed": true,
          "internalType": "address",
          "name": "previousOwner",
          "type": "address"
        },
        {
          "indexed": true,
          "internalType": "address",
          "name": "newOwner",
          "type": "address"
        }
      ],
      "name": "OwnershipTransferred",
      "type": "event"
    },
    {
      "inputs": [
        {
          "internalType": "address",
          "name": "",
          "type": "address"
        }
      ],
      "name": "addressVault",
      "outputs": [
        {
          "internalType": "address",
          "name": "",
          "type": "address"
        }
      ],
      "stateMutability": "view",
      "type": "function"
    },
    {
      "inputs": [
        {
          "internalType": "address",
          "name": "contractAddress",
          "type": "address"
        },
        {
          "internalType": "address[]",
          "name": "recipients",
          "type": "address[]"
        },
        {
          "internalType": "uint256[]",
          "name": "tokenIndexes",
          "type": "uint256[]"
        },
        {
          "internalType": "uint256[]",
          "name": "amounts",
          "type": "uint256[]"
        }
      ],
      "name": "erc1155BulkTransfer",
      "outputs": [],
      "stateMutability": "payable",
      "type": "function"
    },
    {
      "inputs": [
        {
          "internalType": "address",
          "name": "contractAddress",
          "type": "address"
        },
        {
          "internalType": "address[]",
          "name": "recipients",
          "type": "address[]"
        },
        {
          "internalType": "uint256[]",
          "name": "tokenIndexes",
          "type": "uint256[]"
        }
      ],
      "name": "erc721BulkTransfer",
      "outputs": [],
      "stateMutability": "payable",
      "type": "function"
    },
    {
      "inputs": [],
      "name": "owner",
      "outputs": [
        {
          "internalType": "address",
          "name": "",
          "type": "address"
        }
      ],
      "stateMutability": "view",
      "type": "function"
    },
    {
      "inputs": [],
      "name": "renounceOwnership",
      "outputs": [],
      "stateMutability": "nonpayable",
      "type": "function"
    },
    {
      "inputs": [
        {
          "internalType": "address",
          "name": "newOwner",
          "type": "address"
        }
      ],
      "name": "transferOwnership",
      "outputs": [],
      "stateMutability": "nonpayable",
      "type": "function"
    },
    {
      "inputs": [
        {
          "internalType": "uint256",
          "name": "amount",
          "type": "uint256"
        }
      ],
      "name": "updateFee",
      "outputs": [],
      "stateMutability": "nonpayable",
      "type": "function"
    },
    {
      "inputs": [
        {
          "internalType": "address",
          "name": "vaultAddress",
          "type": "address"
        }
      ],
      "name": "updateVault",
      "outputs": [],
      "stateMutability": "nonpayable",
      "type": "function"
    },
    {
      "inputs": [],
      "name": "usageFee",
      "outputs": [
        {
          "internalType": "uint256",
          "name": "",
          "type": "uint256"
        }
      ],
      "stateMutability": "view",
      "type": "function"
    },
    {
      "inputs": [],
      "name": "withdraw",
      "outputs": [],
      "stateMutability": "nonpayable",
      "type": "function"
    }
  ],
  "bytecode": {
    "object": "0x608060405265886c98b7600060025534801561001a57600080fd5b5061002433610029565b610079565b600080546001600160a01b038381166001600160a01b0319831681178455604051919092169283917f8be0079c531659141344cd1fd0a4f28419497f9722a3daafe3b4186f6b6457e09190a35050565b610d73806100886000396000f3fe6080604052600436106100915760003560e01c80638612166311610059578063861216631461014c5780638da5cb5b1461015f5780639012c4a81461017d578063e7563f3f1461019d578063f2fde38b146101e757600080fd5b806323152273146100965780632ab8c1f4146100ab57806334aef4c8146100fe5780633ccfd60b14610122578063715018a614610137575b600080fd5b6100a96100a4366004610a11565b610207565b005b3480156100b757600080fd5b506100e16100c6366004610abe565b6001602052600090815260409020546001600160a01b031681565b6040516001600160a01b0390911681526020015b60405180910390f35b34801561010a57600080fd5b5061011460025481565b6040519081526020016100f5565b34801561012e57600080fd5b506100a961053f565b34801561014357600080fd5b506100a961057a565b6100a961015a366004610ae2565b61058e565b34801561016b57600080fd5b506000546001600160a01b03166100e1565b34801561018957600080fd5b506100a9610198366004610b65565b610880565b3480156101a957600080fd5b506100a96101b8366004610abe565b33600090815260016020526040902080546001600160a01b0319166001600160a01b0392909216919091179055565b3480156101f357600080fd5b506100a9610202366004610abe565b61088d565b858585858083146102335760405162461bcd60e51b815260040161022a90610b7e565b60405180910390fd5b6002546102409082610bcb565b3410156102895760405162461bcd60e51b815260206004820152601760248201527624b73b30b634b2103ab9b0b3b2903332b29039b2b73a1760491b604482015260640161022a565b8489146102a85760405162461bcd60e51b815260040161022a90610b7e565b60405163e985e9c560e01b81523360048201523060248201526001600160a01b038c169063e985e9c590604401602060405180830381865afa1580156102f2573d6000803e3d6000fd5b505050506040513d601f19601f820116820180604052508101906103169190610be8565b6103325760405162461bcd60e51b815260040161022a90610c0a565b60005b878110156105315786868281811061034f5761034f610c60565b905060200201358c6001600160a01b031662fdd58e338c8c8681811061037757610377610c60565b6040516001600160e01b031960e087901b1681526001600160a01b0390941660048501526020029190910135602483015250604401602060405180830381865afa1580156103c9573d6000803e3d6000fd5b505050506040513d601f19601f820116820180604052508101906103ed9190610c76565b10156104535760405162461bcd60e51b815260206004820152602f60248201527f4e6f7420656e6f7567682062616c616e6365206f776e6564206f66207468652060448201526e33b4bb32b7103a37b5b2b71024a21760891b606482015260840161022a565b8b6001600160a01b031663f242432a338d8d8581811061047557610475610c60565b905060200201602081019061048a9190610abe565b8c8c8681811061049c5761049c610c60565b905060200201358b8b878181106104b5576104b5610c60565b90506020020135604051806020016040528060008152506040518663ffffffff1660e01b81526004016104ec959493929190610c8f565b600060405180830381600087803b15801561050657600080fd5b505af115801561051a573d6000803e3d6000fd5b50505050808061052990610d07565b915050610335565b505050505050505050505050565b610547610906565b6040514790339082156108fc029083906000818181858888f19350505050158015610576573d6000803e3d6000fd5b5050565b610582610906565b61058c6000610960565b565b838383838083146105b15760405162461bcd60e51b815260040161022a90610b7e565b6002546105be9082610bcb565b3410156106075760405162461bcd60e51b815260206004820152601760248201527624b73b30b634b2103ab9b0b3b2903332b29039b2b73a1760491b604482015260640161022a565b60405163e985e9c560e01b81523360048201523060248201526001600160a01b038a169063e985e9c590604401602060405180830381865afa158015610651573d6000803e3d6000fd5b505050506040513d601f19601f820116820180604052508101906106759190610be8565b6106915760405162461bcd60e51b815260040161022a90610c0a565b60005b8581101561087457896001600160a01b0316636352211e8888848181106106bd576106bd610c60565b905060200201356040518263ffffffff1660e01b81526004016106e291815260200190565b602060405180830381865afa1580156106ff573d6000803e3d6000fd5b505050506040513d601f19601f820116820180604052508101906107239190610d20565b6001600160a01b0316336001600160a01b0316146107a95760405162461bcd60e51b815260206004820152603c60248201527f53656e646572206973206e6f742074686520746f6b656e206f776e65722c206360448201527f616e6e6f742070726f636565642077697468207472616e736665722e00000000606482015260840161022a565b896001600160a01b03166342842e0e338b8b858181106107cb576107cb610c60565b90506020020160208101906107e09190610abe565b8a8a868181106107f2576107f2610c60565b6040516001600160e01b031960e088901b1681526001600160a01b03958616600482015294909316602485015250602090910201356044820152606401600060405180830381600087803b15801561084957600080fd5b505af115801561085d573d6000803e3d6000fd5b50505050808061086c90610d07565b915050610694565b50505050505050505050565b610888610906565b600255565b610895610906565b6001600160a01b0381166108fa5760405162461bcd60e51b815260206004820152602660248201527f4f776e61626c653a206e6577206f776e657220697320746865207a65726f206160448201526564647265737360d01b606482015260840161022a565b61090381610960565b50565b6000546001600160a01b0316331461058c5760405162461bcd60e51b815260206004820181905260248201527f4f776e61626c653a2063616c6c6572206973206e6f7420746865206f776e6572604482015260640161022a565b600080546001600160a01b038381166001600160a01b0319831681178455604051919092169283917f8be0079c531659141344cd1fd0a4f28419497f9722a3daafe3b4186f6b6457e09190a35050565b6001600160a01b038116811461090357600080fd5b60008083601f8401126109d757600080fd5b50813567ffffffffffffffff8111156109ef57600080fd5b6020830191508360208260051b8501011115610a0a57600080fd5b9250929050565b60008060008060008060006080888a031215610a2c57600080fd5b8735610a37816109b0565b9650602088013567ffffffffffffffff80821115610a5457600080fd5b610a608b838c016109c5565b909850965060408a0135915080821115610a7957600080fd5b610a858b838c016109c5565b909650945060608a0135915080821115610a9e57600080fd5b50610aab8a828b016109c5565b989b979a50959850939692959293505050565b600060208284031215610ad057600080fd5b8135610adb816109b0565b9392505050565b600080600080600060608688031215610afa57600080fd5b8535610b05816109b0565b9450602086013567ffffffffffffffff80821115610b2257600080fd5b610b2e89838a016109c5565b90965094506040880135915080821115610b4757600080fd5b50610b54888289016109c5565b969995985093965092949392505050565b600060208284031215610b7757600080fd5b5035919050565b60208082526019908201527f4172726179206c656e67746873206d757374206d617463682e00000000000000604082015260600190565b634e487b7160e01b600052601160045260246000fd5b8082028115828204841417610be257610be2610bb5565b92915050565b600060208284031215610bfa57600080fd5b81518015158114610adb57600080fd5b60208082526036908201527f436f6e7472616374206e6f7420617070726f76656420746f2073656e6420746f60408201527535b2b7399037b71029b2b73232b9103132b430b6331760511b606082015260800190565b634e487b7160e01b600052603260045260246000fd5b600060208284031215610c8857600080fd5b5051919050565b600060018060a01b03808816835260208188168185015286604085015285606085015260a06080850152845191508160a085015260005b82811015610ce25785810182015185820160c001528101610cc6565b5050600060c0828501015260c0601f19601f8301168401019150509695505050505050565b600060018201610d1957610d19610bb5565b5060010190565b600060208284031215610d3257600080fd5b8151610adb816109b056fea2646970667358221220f303b70463fc26db609bcd61d5c0a766950ec925aec9ef859f24d3ce05fdd28764736f6c63430008110033",
    "linkReferences": {}
  },
  "methodIdentifiers": {
    "addressVault(address)": "2ab8c1f4",
    "erc1155BulkTransfer(address,address[],uint256[],uint256[])": "23152273",
    "erc721BulkTransfer(address,address[],uint256[])": "86121663",
    "owner()": "8da5cb5b",
    "renounceOwnership()": "715018a6",
    "transferOwnership(address)": "f2fde38b",
    "updateFee(uint256)": "9012c4a8",
    "updateVault(address)": "e7563f3f",
    "usageFee()": "34aef4c8",
    "withdraw()": "3ccfd60b"
  },
  "id": 30
}